:0300000002016E8C
:0C016E00787FE4F6D8FD75819D0201B594
:1001FA0020274341542B43574A41503D2253444DF3
:10020A00534A59222C2273646D31333134343331D9
:10021A003633393153444D220D0A087641542B5254
:10022A0053540D0A0D2141542B4349504D55583D05
:10023A00310D0A152E41542B434950534552564508
:10024A00523D312C353030300D0A0A6A41542B4365
:06025A00494653520D0A53
:080003002508F8E6F5997F01DC
:10000B00E4FEEEC39F500D00007D167C80DCFEDD10
:04001B00FC0E80EE69
:01001F0022BE
:0802C1007FD07E077D007C0068
:0802C9008F0C8E0B8D0A8C09CD
:1002D100E4F510F50FF50EF50DE47F64FEFDFCABC2
:1002E1000CAA0BA90AA809120261AB10AA0FA90E48
:1002F100A80DC31202B0501BE4FAF9F8E51024016D
:10030100F510EA350FF50FE9350EF50EE8350DF567
:030311000D80C696
:0103140022C6
:10002600E4F508C200F574F575E598543F4440F5CB
:100036009853A23F538EEF438E01438E0475D6FF2D
:1000460075D7D0438E10D29CD2ACD2AF1202C1E487
:10005600F574F50874431200030508C3E5086480C7
:1000660094A740F01202C1E4F50874761200030565
:1000760008C3E5086480948840F07F887E131202E6
:10008600C5E4F50874211200030508C3E508648079
:10009600948D40F01202C1E4F508742E1200030597
:1000A60008C3E5086480949540F01202C12093FDD0
:1000B6007F0112000B209313E4F508747E120003EF
:1000C6000508C3E5086480949940F02093DF80FB1F
:030023000200D602
:0D00D600C0E0C0D075D000C000C006C0075B
:1000E300309876C298747E2574F8A699787EE6FFD8
:1000F300B4450405748003757400E574C3940A4021
:1001030058EF6445704D787FE66453704608E664A3
:100113005070407885E6FFB4310F7881E6FEB44B2A
:1001230002C290EEB44702D290EFB4320F7881E668
:10013300FFB44B02C291EFB44702D2917885E6B483
:10014300330F7881E6FFB44B02C2B7EFB44702D254
:10015300B78000757400757400309904C299C200A9
:0B016300D007D006D000D0D0D0E03292
:10017A00020026E493A3F8E493A34003F68001F275
:10018A0008DFF48029E493A3F85407240CC8C33386
:10019A00C4540F4420C8834004F456800146F6DF55
:1001AA00E4800B01020408102040809001FAE47EEA
:1001BA00019360BCA3FF543F30E509541FFEE4934A
:1001CA00A360010ECF54C025E060A840B8E493A311
:1001DA00FAE493A3F8E493A3C8C582C8CAC583CA3C
:1001EA00F0A3C8C582C8CAC583CADFE9DEE780BEF4
:01026000009D
:10026100E88FF0A4CC8BF0A42CFCE98EF0A42CFC3C
:100271008AF0EDA42CFCEA8EF0A4CDA8F08BF0A4BA
:100281002DCC3825F0FDE98FF0A42CCD35F0FCEB19
:100291008EF0A4FEA9F0EB8FF0A4CFC5F02ECD39DE
:0F02A100FEE43CFCEAA42DCE35F0FDE43CFC224B
:1002B000EB9FF5F0EA9E42F0E99D42F0E89C45F0A4
:0102C000221B
:00000001FF
